:020000040800F2
:10000000709000204501000885190008770E00084F
:1000100081190008E30C0008A72600080000000072
:100020000000000000000000000000005D1D00084E
:10003000490D0008000000000D1A00089D1E000870
:100040005F0100085F0100085F0100085F01000810
:100050005F0100085F0100085F0100085F01000800
:100060005F0100085F0100085F0100085F010008F0
:100070005F0100085F0100085F0100085F010008E0
:100080005F0100085F0100085F0100085F010008D0
:100090005F0100085F0100085F0100085F010008C0
:1000A0005F0100085F0100085F0100085F010008B0
:1000B0005F0100085F010008011F00085F010008E0
:1000C0005F0100085F0100085F0100085F01000890
:1000D0005F010008D92100086122000859230008A7
:1000E0005F0100085F0100085F0100085F01000870
:1000F0005F0100085F0100085F0100085F01000860
:100100005F010008ED1B00085F0100085F010008A7
:100110005F0100085F010008391F0008CD1F0008BB
:100120005F0100085F0100085F0100085F0100082F
:10013000DFF80CD000F0E8FB00480047E131000890
:10014000709000200648804706480047FEE7FEE71B
:10015000FEE7FEE7FEE7FEE7FEE7FEE7FEE7FEE777
:10016000A11E00083101000840EA01039B0703D0EB
:1001700009E008C9121F08C0042AFAD203E011F8E6
:10018000013B00F8013B521EF9D27047D2B201E0A8
:1001900000F8012B491EFBD270470022F6E710B58C
:1001A00013460A4604461946FFF7F0FF204610BDE5
:1001B00030B505462A460B4612F8010B13F8014BE1
:1001C00008B1A042F8D01CB1002802D06D1CF1E7A4
:1001D000284630BD421C10F8011B0029FBD1801AB3
:1001E000704700000FB400B58DB010A909900B90B6
:1001F00000914FF0FF300A9000200C9005480690C7
:10020000054807906A4609A80F9900F06BFA0DB0EF
:100210005DF814FB010700081F0700082DE9FF5FC8
:100220001D464FF0FF3BD5E9014691465F464FF032
:100230000008A9697F1C01988847296A8246884777
:100240000028F6D1BAF1FF3F0CD024F4C064002E90
:1002500019DD600614D5BAF12B0F09D0BAF12D0FB4
:100260000ED103E0584604B0BDE8F09F44F480642A
:10027000A9697F1C01988847761E8246002E02DD00
:10028000BAF1300F03D0B9F1000F26D032E0A969DE
:10029000761E44F400747F1C019888478246002E25
:1002A00005DDBAF1780F06D0BAF1580F03D0B9F1D5
:1002B000000F10D01EE0B9F1000F02D0B9F1100FFD
:1002C00018D1A969761E24F400747F1C0198884710
:1002D0008246102002E0082000E00A20814609E062
:1002E00008FB0908A969761E44F400747F1C019874
:1002F00088478246002E05DD4946504600F0DEF96B
:100300000028EDDAE96901988847A00502D46FF06A
:100310000100A8E7E00725D1600613D5600502D5E6
:10032000C8F1000000E0404629680A1D2A600968FB
:10033000220501D5087015E0220701D5088011E0DB
:1003400008600FE02868011D29600068210502D5BA
:1003500080F8008006E0210702D5A0F8008001E0C7
:10036000C0F8008038467EE72DE9FE4F804681EADE
:100370000300C00F0C46009021F0004123F000451F
:10038000B8EB0200A94105D24046214690461C46E2
:100390000B46024623F00040104347D0270DC7F319
:1003A0000A00C3F30A510290401A019040286BDA08
:1003B000C3F3130040F4801B0098924620B1002341
:1003C000D2EB030A63EB0B0B01985946C0F14002D4
:1003D000504600F042F906460D4650465946019AED
:1003E00000F05AF910EB08006141002487EA11522D
:1003F00084EAE7731A4340D0009A62B3019A012A53
:100400004FEA075215DC001B61EB02014FF000427E
:1004100002EA0752CDE90042001C41F58011324644
:100420002B4600F09CF903B0BDE8F08F4046214612
:10043000F9E7001B61EB0201001C41F58013001875
:100440005B412018A2F5001747EB030140EAD57085
:10045000B6196D4111E06D084FEA360645EAC075E0
:100460004FEA0752001B61EB0201001C41F58011AD
:1004700049084FEA30000019514132462B4603B07B
:10048000BDE8F04F00F05CB9009801224000002365
:10049000D0EB020263EBE073009821464FEAE07470
:1004A000B8EB000061EB0401E9E783F000435BE790
:1004B00081F0004158E72DE9FE4F81EA030404F082
:1004C000004421F0004100944FF0000B23F0004362
:1004D00050EA01045ED052EA03045BD0C3F30A542D
:1004E000C1F30A552C44A4F2F3340194A0FB025446
:1004F000C1F3130141F48011C3F3130343F48013D8
:1005000001FB024400FB034E840A970A44EA81542B
:1005100047EA8357A4FB076802958D0A05FB078508
:100520004FEA932C04FB0C542705029D4FEA065812
:1005300047EA1637B5EB08056EEB070C870E920EEF
:1005400047EA811742EA8312A7FB0201B6EB0B01CF
:1005500064EB00042B0D43EA0C335E1844EB1C5093
:10056000DA465146E7FB0201C5F313044FEA0B33A9
:1005700043EA14534FEA0432019C43EA0603A4F110
:100580000C040294009CCDE900B400F0E8F803B03C
:10059000BDE8F08F00200146F9E7000030B5041EE9
:1005A00071F1000404DB4FF00044404264EB0101B0
:1005B000141E73F1000405DB1C464FF00043524249
:1005C00063EB0403994208BF904230BD30B50B463F
:1005D000014600202022012409E021FA02F59D4273
:1005E00005D303FA02F5491B04FA02F52844151E47
:1005F000A2F10102F1DC30BD2DE9F05F05460020DB
:1006000092469B4688460646814640241BE0284683
:1006100041464746224600F02FF853465A46C01A34
:10062000914110D311461846224600F016F82D1AB3
:1006300067EB01084F4622460120002100F00DF82B
:1006400017EB00094E41201EA4F10104DFDC4846EF
:1006500031462A464346BDE8F09F202A04DB203A73
:1006600000FA02F1002070479140C2F1200320FA05
:1006700003F3194390407047202A04DB203A21FA03
:1006800002F00021704721FA02F3D040C2F12002AB
:100690009140084319467047202A06DBCB17203AC1
:1006A00041FA02F043EAE07306E041FA02F3D04077
:1006B000C2F1200291400843194670473A2800D2FF
:1006C000303820F02002412A01D3A2F137008842BD
:1006D00001D34FF0FF307047026811441378016076
:1006E00018467047D16004495161044911620021E4
:1006F0001161114600F020B9D90600082D09000843
:10070000426842B1016811F8013B23B1521EC0E9B1
:100710000012184670470121C160881E7047426868
:100720005AB1C368016843B983688B4205D0491E3A
:10073000521CC0E90012002070474FF0FF30704794
:1007400010B5141E73F1000408DA401C41F10001D9
:1007500092185B411A4301D120F0010010BD2DE930
:10076000F04D92469B4611B1B1FA81F202E0B0FA27
:1007700080F220329046FFF770FF04460F4640EAB1
:100780000A0041EA0B0153465A46084313D011466A
:1007900053EA010019D0C8F140025046FFF76CFF40
:1007A00005460E46504659464246FFF756FF084357
:1007B00005D0012004E020463946BDE8F08D002038
:1007C000054346EAE0762C4337430A986305E40A7A
:1007D000A0EB08000022FD0A44EA47540A3002D583
:1007E00000200146E9E7010510196941DDE90845E6
:1007F00000196941BDE8F04DA2E72DE9F04D81EA0D
:10080000030404F0004B21F0004514464FF0000AA9
:1008100023F0004150EA050220D054EA01021DD025
:10082000C5F30A570246C5F31303C1F31300C1F31E
:100830000A5640F4801543F48013A7EB0608101BFA
:10084000D64608F2FD3873EB050002D308F1010823
:1008500001E092185B41B8F1000F03DA0020014675
:10086000BDE8F08D00204FF48011064684460EE06E
:10087000171B73EB050705D3121B63EB0503064338
:100880004CEA010C49084FEA300092185B4150EAEB
:100890000107EDD152EA030012D082EA040083EA94
:1008A0000501084305D0101BAB4106D201220023ED
:1008B00006E000224FF0004302E06FF00102531007
:1008C0001AEB06004CEB085110EB0A0041EB0B0150
:1008D000BDE8F04DFFF734BFC1F30A52C1F3130175
:1008E00040F2FF3341F480119A4202DA00200146BF
:1008F000704740F233439A42A2F2334202DC524242
:10090000FFF7BABEFFF7A9BE064C074D06E0E06848
:1009100040F0010394E8070098471034AC42F6D346
:10092000FFF70AFCE44A0008044B0008C0B24FF489
:10093000F05100F097B900002DE9F34F8BB04FF064
:10094000000801F10C000C464FF0010B46460DF17A
:10095000080A0190626901210198904705002DD095
:10096000252D2CD0216A8847C0B1626901210198E8
:100970009047216A88470028F7D1411E6269019893
:10098000904700E0761CA1690B988847216A884748
:100990000028F7D1E1690B988847DBE7A1690B983C
:1009A00088470746A84201D1761CD3E7E1690B9836
:1009B00088477F1C02D1B8F1000F6FD046E10027B5
:1009C00062693D463946019890472A2804D16269F8
:1009D0000121019890470125DFF884926269012185
:1009E00001989047A0F130010A290AD24F45E5DC71
:1009F00007EB870100EB4107303FDFD445F01005DE
:100A0000ECE7E90601D46FF000476C280AD04C28C7
:100A100014D0682815D06A280DD074281CD07A28E4
:100A20001AD01DE062690121019890476C2802D01C
:100A300045F0040514E045F002050DE045F0200501
:100A40000AE06269012101989047682802D045F0C8
:100A5000080505E045F400656269012101989047A9
:100A6000C4E9015765283DD019DC58287AD00CDC40
:100A7000452837D004DC252826D0412831D131E063
:100A800046282FD047282CD12CE05B2877D061282E
:100A900028D063287CD0642823D15AE0D0E06F2886
:100AA00048D008DC66281DD067281BD0692821D0D3
:100AB0006E2816D127E0702845D0732868D0752895
:100AC00047D078280DD14DE0A1690B98884705469D
:100AD00025283FF469AFE1690B9888476D1C3FF406
:100AE0006AAFB3E023466A466FF001000B99AFF39B
:100AF00000809EE045F040006060A80723464FF06C
:100B0000000236D43EE0E8077FF447AF2068011DBD
:100B100021600068290501D506701BE7290701D56A
:100B2000068017E7A90703D5F117C0E9006111E7AF
:100B300006600FE745F040006060A80723464FF0CD
:100B4000080216D41EE040F60E0125EA010060609E
:100B500016E045F040006060A80723464FF00A0207
:100B600007D40FE045F040006060A80708D5234691
:100B700010226FF001000B99AFF3008059E007E0FD
:100B8000234610226FF001000B99FFF747FB50E05E
:100B90004FF000094F464B46632802D05B2806D031
:100BA00040E0E80601D40120A06001273AE0626934
:100BB0000121019890475E2805D14FF00109626933
:100BC000494601989047216939B900210A465346A0
:100BD00043F82120491C0829FADBB0B3216969B91F
:100BE000C11700EBD16253110AEB830122F01F02FF
:100BF000821A01200B68904003430B606269012157
:100C0000019890475D28E8D1B9F1000F09D0002084
:100C1000514651F82020D24341F82020401C08289A
:100C2000F7DB02AB224600976FF001000B99AFF3A0
:100C3000008000280CDA401C08D1BBF1000F05D061
:100C40004FF0FF300DB0BDE8F08FFFE74046F9E709
:100C5000E90701D108F1010806444FF0000B79E6DD
:100C6000CCCCCC0C7F2801D9002208E0064A02EB4C
:100C70005002C007127800D1120902F00F020120C1
:100C800090400840704700007448000870B58C1808
:100C900010F8015B15F0070301D110F8013B2A1190
:100CA00006D110F8012B03E010F8016B01F8016B7D
:100CB0005B1EF9D12B0705D40023521E0DD401F879
:100CC000013BFAE710F8013BCB1A921C03E013F842
:100CD000015B01F8015B521EF9D5A142D8D3002077
:100CE00070BD00BFFEE7000070B5044605E0154882
:100CF000456B05F0450000B100E0F8E700BF0420B7
:100D000000F068FF20B1042000F05EFF032070BDFA
:100D1000012000F05FFF20B1012000F055FF01200D
:100D2000F5E708480069A04201D01020EFE740F243
:100D3000FF50044988630846406908210840C0B252
:100D4000E5E700000080014070472DE9F0410246D0
:100D500000250026002000230024002791F803C06E
:100D60000CF00F0591F803C00CF0100CBCF1000F53
:100D700003D091F802C04CEA050591F800C0BCF11F
:100D8000000F31D0146800202BE04FF0010C0CFA5A
:100D900000F3B1F800C00CEA03069E4220D18300A4
:100DA0004FF00F0C0CFA03F7BC4305FA03FC4CEAB6
:100DB000040491F803C0BCF1280F06D14FF0010CD8
:100DC0000CFA00FCC2F814C00AE091F803C0BCF1B0
:100DD000480F05D14FF0010C0CFA00FCC2F810C00E
:100DE000401C0828D1D31460B1F800C0BCF1FF0F3B
:100DF00034DD546800202EE000F1080C4FF00108AB
:100E000008FA0CF3B1F800C00CEA03069E4221D1A7
:100E100083004FF00F0C0CFA03F7BC4305FA03FCF8
:100E20004CEA040491F803C0BCF1280F05D100F18D
:100E3000080C08FA0CF8C2F8148091F803C0BCF151
:100E4000480F07D100F1080C4FF0010808FA0CF820
:100E5000C2F81080401C0828CED35460BDE8F08151
:100E60000246002093680B400BB1012000E00020F7
:100E700070470161704700BFFEE700000EB51048E3
:100E8000007810490978104A1278CDE900210290C3
:100E90000E480088401C80B20C49088002460C486D
:100EA00003780C490C4801F011FC0B490BA001F030
:100EB000FDFB0122084910A000F0D8FC0EBD000087
:100EC0008601002089010020880100208401002083
:100ED00087010020684A0008780E00200D0A3E3E77
:100EE0003E2042414E494C495920B7A2B2BC202570
:100EF00073200D0A000000002F7379732F6833638D
:100F0000794F71627375454D2F546573742F7468F2
:100F1000696E672F6576656E742F70726F7065727B
:100F200074792F706F73740010B51DA11E48FFF700
:100F30003FF918B11C491DA001F0B8FB1FA11A48C8
:100F4000FFF736F910B120A002F02EFA20A11648C2
:100F5000FFF72EF910B121A002F026FA21A11248C4
:100F6000FFF726F910B122A002F01EFA22A10E48C6
:100F7000FFF71EF910B123A002F016FA23A10A48C8
:100F8000FFF716F910B101202349087023A1064884
:100F9000FFF70EF910B100201F49087010BD0000C6
:100FA000706172616D730000DC0E00200D0A203E3E
:100FB000414C4959554E2020257300002252454C82
:100FC000415931223A31000032310A0D000000004F
:100FD0002252454C415931223A30000032300A0D3C
:100FE000000000002252454C415932223A310000A3
:100FF00033310A0D000000002252454C4159322283
:101000003A30000033300A0D00000000224D4F44FA
:1010100045223A310000000086010020224D4F4455
:1010200045223A30000000001FB50446002003901E
:101030000290019001A802AB03AA09A100902046EA
:10104000FFF7D0F80F49039808700F49029808700D
:101050000E490198087021460DA001F027FB1FBD25
:101060007B225241494E223A25642C2252454C4162
:101070005931223A25642C2252454C415932223AA8
:1010800025647D008701002088010020890100205F
:101090000D0A3E5A4947424545202025730000006D
:1010A00008B50121442000F005FD1C20ADF800002A
:1010B00048208DF8030069460648FFF746FE0120E8
:1010C000ADF8000028208DF8030069460248FFF7BC
:1010D0003CFE08BD001801400008014010B5044660
:1010E00014B101202C4908702B480078002837D013
:1010F00010212A48FFF7B4FE78B108212748FFF7EE
:10110000AFFE50B104212548FFF7AAFE28B1012106
:101110002348FFF7A5FE012822D10A2002F02CF86F
:1011200000201D49087010211C48FFF799FE08B9DE
:10113000012010BD08211948FFF792FE08B90220CE
:10114000F7E704211548FFF78BFE08B90320F0E705
:1011500001211348FFF784FE01281BD10420E8E792
:1011600010210E48FFF77CFE012813D108210B48FF
:10117000FFF776FE01280DD104210848FFF770FE25
:10118000012807D101210648FFF76AFE10B90120A6
:10119000014908700020CCE71E0000200018014023
:1011A0000008014008B50121482000F083FC202000
:1011B000ADF8000010208DF8030003208DF8020028
:1011C00069460948FFF7C1FD20210748FFF751FE96
:1011D0002020ADF8000069460448FFF7B6FD202145
:1011E0000248FFF746FE08BD000C01400018014010
:1011F00030B50246002300BF0846CD1701EB556508
:10120000ED11A1EBC515ECB2CD1701EB5565E91158
:10121000002901DD44F0800418465B1C14540029A9
:10122000EADC184630BD0000401C802801DA401C72
:101230000AE0B0F5804F01DA801C05E003498842DE
:1012400001DAC01C00E0001D70470000FFFF1F0016
:101250002DE9FE4305460E461446029500200190F6
:10126000009000274FF0FF38204600F0A5F8074611
:101270008146FFF7D9FFB04202DD6FF001088FE031
:1012800000208DF80400019820F0F000103001904B
:101290009DF8041002A803F081FA39460298FFF77E
:1012A000A7FF029908440290207A042808D13EA1A1
:1012B00002A803F05FFA042102A803F06FFA07E026
:1012C0003BA102A803F056FA032102A803F066FA34
:1012D00000208DF80000A17E009861F3410000908D
:1012E000E07E08B1012100E00021009861F3820056
:1012F00000900098C0F3800058B194F83D10009819
:1013000061F3C400009094F83C10009861F345101C
:101310000090206C08B9A06C20B1009820F08000EB
:1013200080300090E06C08B9606D20B1009820F02A
:101330004000403000909DF8001002A803F02EFA03
:10134000218B02A803F030FA02A8D4E90423E16853
:1013500003F042FAE07E58B102A8D4E90A23616A98
:1013600003F03AFA02A8D4E90D23216B03F034FA12
:101370000098C0F3C01028B102A8D4E91123216C51
:1013800003F02AFA0098C0F3801028B102A8D4E92B
:101390001423E16C03F020FA0298A0EB050800BFCB
:1013A0004046BDE8FE8300004D515454000000004B
:1013B0004D5149736470000070B504460025207AD1
:1013C000032801D10C2503E0207A042800D10A2546
:1013D000D4E90412E06800F0C7FA801C0544E07EFE
:1013E00068B1D4E90A12606A00F0BEFA861CD4E93A
:1013F0000D12206B00F0B8FA3044801C0544206CBC
:1014000008B9A06C30B1D4E91112206C00F0ACFA2C
:10141000801C0544E06C08B9606D30B1D4E9141249
:10142000E06C00F0A1FA801C0544284670BD2DE94F
:10143000F04F87B005460F4690461C46DDE915B6CD
:10144000DDE9109A0695002005900490039000961F
:10145000204612A90EC900F042F804900290FFF74E
:10146000E3FEB84203DD6FF00100039033E005981E
:1014700020F0F00030300590059868F3C300059027
:10148000059864F342000590059869F30000059003
:101490009DF8141006A803F081F904990698FFF747
:1014A000A7FE06990844069006A812A90EC903F0E3
:1014B00093F9002C03DD514606A803F075F9324676
:1014C00059460698FEF750FE069830440690069856
:1014D000401B039000BF039807B0BDE8F08F7FB5B5
:1014E0000546089E002401A807C800F03DFA801CAC
:1014F00030440444002D00DDA41C204604B070BD1F
:1015000030B597B05822124901A8FEF72DFEC82425
:1015100021461048FEF741FE0F4804907820ADF8B0
:101520001C0001208DF81E000CA011901048149092
:1015300001AA21460748FFF78BFE05462A460549C2
:101540000C4801F01EFF0CA001F0B0F817B030BD40
:101550001C480008A40F0020184A00085465737442
:1015600026683363794F71627375454D0000000042
:10157000C4490008004800400D0A4D515454C1AC04
:10158000BDD3B3C9B9A6000010B50020FFF7A6FD72
:101590000446002C1FD021460FA001F087F8012C33
:1015A00004D0022C09D0042C14D10DE011A001F0BC
:1015B000FBFE12A001F07AF80CE015A001F0F4FE99
:1015C0000EA001F073F805E0FFF758FC12A001F03F
:1015D0006DF800BF00BF10BD0D0ABCECB2E2B5BD96
:1015E000B0B4BCFCCFECD3A6A1FA25640909090963
:1015F0000909000032310A0D000000000D0AC3FC89
:10160000C1EEB7A2CBCDB3C9B9A6210D0A00000027
:1016100033310A0D000000000D0A20B7A2B2BCB39E
:10162000C9B9A6212000000000B58DB000BF14226A
:101630002AA12BA001F04EFD0028F8D100BF1422F2
:1016400026A129A001F046FD0028F8D1294801680B
:1016500029A001F02BF83048036826482FA1026822
:10166000684601F033F8694631A001F01FF800BF69
:1016700012221AA1684601F02DFD0028F8D130A0F1
:1016800001F014F800BF142214A1314801F022FD2A
:101690000028F8D14FF47A7001F06EFD00BF1422DB
:1016A0000EA12CA001F016FD0028F8D14FF47A709D
:1016B00001F062FD00BF14222AA12BA001F00AFD57
:1016C0000028F8D12BA000F0F1FF4FF47A7001F060
:1016D00053FD684601F020F80DB000BD4F4B0000EF
:1016E000415445300000000041542B43574D4F44B6
:1016F000453D31007C0100200D0AD5FDD4DAB3A2AE
:10170000CAD4C1ACBDD35749464920203E3E3E25F0
:10171000733C3C3C200000008001002041542B43DE
:10172000574A41503D222573222C22257322000066
:101730000D0A202573203C3C3C200D0A00000000CF
:101740000D0A57494649C1ACBDD3B3C9B9A600007B
:101750007C49000841542B4349504D4F44453D318D
:10176000000000003E00000041542B434950534507
:101770004E4400000D0ABFAACABCB4ABCAE4CAFDFD
:10178000BEDD00000024FFF74FFFFFF7B9FE4FF466
:101790007A7001F0F1FC012221A12E4800F09CF8A2
:1017A0003DE000202C4908602C49C1F894010A2032
:1017B00001F0E2FC0F2094FBF0F100FB114020B19E
:1017C000012025490860FFF7AFFB2548008800F499
:1017D0000040A8B1002022490988C1F30E01214A26
:1017E00050541046FFF720FC00201D4908800A20B5
:1017F00094FBF0F100FB114010B101201A49086080
:1018000000F006F9FFF7C0FE601C84B25A2094FB7A
:10181000F0F100FB114010B9FFF730FB0024C0E7E6
:101820002F7379732F683363794F71627375454DE8
:101830002F546573742F7468696E672F73657276A1
:101840006963652F70726F70657274792F73657438
:1018500000000000A40F00209481214200002342D8
:1018600036000020C8090020940123422DE9F043EE
:101870008BB005460C4616460020089009900A9049
:101880002046FEF7A7FC81464FF0C80841461048A5
:10189000FEF783FC0895CDE9054908A807C802AB07
:1018A00007C3002000903346024641460190084895
:1018B000FFF7BDFD07463A460549064801F061FDC0
:1018C000204600F029FF00200BB0BDE8F0830000A7
:1018D000A40F0020004800402DE9F04704460D46C3
:1018E00016464FF0020902272846FEF773FCC01C7B
:1018F00000F0FF088220207007EB080060700020D5
:10190000A0700120E0702846FEF764FC000A2071F8
:101910002846FEF75FFC60712846FEF75BFC8246B6
:1019200052462946A01DFEF71FFC2846FEF752FC32
:10193000801D265409EB070000EB08020449054806
:1019400001F01FFD04A000F0B1FEBDE8F08700002B
:10195000A40F0020004800400D0AB6A9D4C4D6F751
:10196000CCE2B3C9B9A6000037B50024009820B175
:101970000098FEF72FFC044600E0019C20463EBD87
:1019800000BFFEE77047000070B5002100230F2262
:10199000C47804B3154C246804F4E064C4F5E0642E
:1019A000210AC1F10403CA40447804FA03F184789F
:1019B0001440214309010E4C0678A155047804F027
:1019C0001F050124AC4005786D11AD0005F1E0253F
:1019D000C5F8004109E0047804F01F050124AC407B
:1019E000044D0678761145F8264070BD0CED00E0F8
:1019F00000E400E080E100E002490143024A116096
:101A0000704700000000FA050CED00E07047000090
:101A100010B51048007801281AD10F480078012825
:101A20000BD10EA001F0C0FC0DA001F0BDFC012007
:101A30000C4908700C4908700AE00CA001F0B4FCD5
:101A40000BA001F0B1FC002006490870064908709F
:101A500010BD0000860100208701002032310A00FD
:101A600033310A00880100208901002032300A0049
:101A700033300A0029B1064AD2690243044BDA61C5
:101A800004E0034AD2698243014BDA6170470000E7
:101A90000010024029B1064A12690243044B1A6140
:101AA00004E0034A12698243014B1A617047000047
:101AB0000010024029B1064A92690243044B9A6120
:101AC00004E0034A92698243014B9A617047000027
:101AD0000010024029B1064AD2680243044BDA6082
:101AE00004E0034AD2688243014BDA607047000089
:101AF0000010024030B500210022002400232D4DAB
:101B00006D6805F00C0121B1042905D0082923D105
:101B100005E0294D056022E0274D05601FE0254DB9
:101B20006D6805F47012234D6D6805F4803402254C
:101B300005EB92421CB9214D554305600BE01D4D4C
:101B40006D6805F400351DB11C4D5543056002E07C
:101B5000194D5543056002E0174D056000BF00BFF9
:101B6000144D6D6805F0F0010909154D6B5C0568B1
:101B7000DD4045600F4D6D6805F4E061090A104DC8
:101B80006B5C4568DD4085600A4D6D6805F4605109
:101B9000C90A0B4D6B5C4568DD40C560054D6D683D
:101BA00005F44041890B074D6B5CC568B5FBF3F547
:101BB000056130BD0010024000127A0000093D00AE
:101BC0003800002048000020014988637047000069
:101BD0000080014001460020034A526B0A400AB1CE
:101BE000012000E0002070470080014010B500F0A7
:101BF00017F810BD0021094B02689A601A46D16897
:101C00006FF30A01D0E901231A43C3681A43036939
:101C10001A431143014AD16070470000008001401F
:101C200010B54948406B00F4807070B347480078A5
:101C3000012814D10020464908600C20486040204B
:101C400088600020C8604FF4806008610846FFF794
:101C5000D1FF0C20FFF748F83E49087002E0002051
:101C60003C4908703848806B40F48070364988637E
:101C70000846C06B4CF23A3188433349C8630120AF
:101C8000354908703348007810BDFFE70220FFF7A0
:101C9000A1FF68B10220FFF797FF2B48C06B4CF201
:101CA0003A3188432849C86302202A490870EBE783
:101CB0000820FFF78FFF68B10820FFF785FF224853
:101CC000C06B4CF23A3188431F49C8630420214954
:101CD0000870D9E72020FFF77DFF68B12020FFF7CB
:101CE00073FF1948C06B4CF23A3188431649C863F8
:101CF000062018490870C7E71020FFF76BFF68B18E
:101D00001020FFF761FF1048C06B4CF23A31884356
:101D10000D49C86305200F490870B5E74FF40070FE
:101D2000FFF758FF70B14FF40070FFF74DFF064802
:101D3000C06B4CF23A3188430349C8630720054918
:101D40000870A1E700209FE70080014029000020E3
:101D5000700200202A0000202B000020704710B5E0
:101D600000F002F810BD00000CB5002001900090BA
:101D70003348006840F480303149086000BF304883
:101D8000006800F4003000900198401C0190009819
:101D900018B90198B0F5A06FF1D12948006800F496
:101DA000003010B10120009001E000200090009868
:101DB000012843D12348006840F010002149086001
:101DC0000846006820F0030008600846006840F0FC
:101DD000020008601A48406819494860084640688F
:101DE00048600846406840F48060486008464068A3
:101DF00020F47C1048600846406840F4E8104860D1
:101E00000846006840F08070086000BF0C48006819
:101E100000F000700028F9D00948406820F0030065
:101E2000074948600846406840F00200486000BF2B
:101E30000348406800F00C000828F9D10CBD0000F0
:101E400000100240002002402DE9F0470746884676
:101E500091469A4608AC70CC214602A000F026FCC0
:101E6000BDE8F0870D0A5B25735D090909090909B9
:101E700009090900042808D14FF0E021096941F05F
:101E800004014FF0E022116107E04FF0E021096901
:101E900021F004014FF0E02211617047704700000B
:101EA00010B51348006840F0010011490860084669
:101EB0004068104908400E494860084600680E49CD
:101EC00008400B4908600846006820F4802008603C
:101ED0000846406820F4FE0048604FF41F00886008
:101EE000FFF73DFF4FF000600449086010BD00009F
:101EF000001002400000FFF8FFFFF6FE08ED00E0D2
:101F000010B501210A4800F0C9F801280AD1094991
:101F1000086980470021064800F0DCF86421044885
:101F200000F0D6F80121024800F09DF810BD000035
:101F3000000800408800002010B50121094800F089
:101F4000ADF868B10848008840F4004006490880B0
:101F50000121044800F087F80021024800F086F8CB
:101F600010BD000000100040360000207FB505467F
:101F70000C4601211020FFF77DFDADF80450ADF8AF
:101F800000400020ADF80600ADF8020069460E489A
:101F900000F0A2F8012211460B4800F090F8012150
:101FA000094800F063F836208DF80C0000208DF809
:101FB0000D0003208DF80E0001208DF80F0003A8FE
:101FC000FFF7E2FC7FBD00000010004010B50121CA
:101FD000094800F063F868B10848008840F4004000
:101FE000064908800121044800F03DF8002102481C
:101FF00000F03CF810BD000000140040320000204A
:102000007FB505460C4601212020FFF733FDADF8D2
:102010000450ADF800400020ADF80600ADF8020015
:1020200069460E4800F058F8012211460B4800F0AE
:1020300046F80121094800F019F837208DF80C0006
:1020400000208DF80D0002208DF80E0001208DF883
:102050000F0003A8FFF798FC7FBD000000140040AC
:10206000CA4302827047CA430282704721B1028884
:1020700042F00102028004E002884FF6FE731A402B
:10208000028070470146888C704702460020138A00
:102090000B400BB1012000E00020704730B5024634
:1020A000002000230024158A05EA0103958905EA2A
:1020B000010413B10CB1012000E0002030BD1AB1C1
:1020C00083890B43838102E083898B43838170473B
:1020D0008185704781847047002202881D4B984299
:1020E0000ED01D4B98420BD0B0F1804F08D01B4B47
:1020F000984205D01A4B984202D01A4B984204D10C
:102100004FF68F731A404B881A43174B984207D0EB
:10211000164B984204D04FF6FF431A40CB881A431F
:1021200002808B8883850B8803850A4B98420BD0ED
:10213000094B984208D00E4B984205D00D4B98425F
:1021400002D00D4B984201D10B7A03860123838282
:1021500070470000002C01400034014000040040A2
:1021600000080040000C0040001000400014004037
:102170000040014000440140004801407FB5054651
:102180000C4601210420FFF775FCADF80850ADF8AE
:1021900004400020ADF80A00ADF8060001A90D4882
:1021A000FFF79AFF012241210A48FFF788FF1E200E
:1021B0008DF8000003208DF801008DF80200012049
:1021C0008DF803006846FFF7DFFB01210148FFF7A8
:1021D0004DFF7FBD0008004010B540F225511D485D
:1021E00000F09DF910B31B4800F054FAC4B21A482D
:1021F000008800F40040C8B91748008800F4804007
:1022000060B10A2C03D000201349088020E0124856
:10221000008840F400401049088019E00D2C06D1D8
:102220000D48008840F480400B49088010E00A48BF
:102230000088C0F30D0009490C5407480088401C71
:102240000549088008460088C72801DD002008806D
:1022500010BD0000003801401C000020900100204B
:1022600010B540F22551354800F059F9002863D0E7
:10227000324800F00FFAC4B23148007802281CD16D
:10228000742C1AD100202F4908700BE020202E4911
:102290002C4A92F9002088542A480078401C40B209
:1022A00028490870274890F900006428EED3FF20E1
:1022B000244908700020224908702148007801282C
:1022C00005D1652C03D102201D49087002E00020D1
:1022D0001B490870672C02D1012019490870194860
:1022E00090F900100078401C40B2164A1070164851
:1022F00044541648008800F40040B0B913480088E0
:10230000B0F5167F12DA00211148FFF7E3FE0F48FF
:10231000008818B901210E48FFF7A8FE0B4908886C
:10232000411C0A4A11800B490C5405E007480088FB
:1023300040F400400549088010BD00000044004002
:102340003500002034000020400F0020360000201F
:1023500000100040C809002010B540F22551354852
:1023600000F0DDF8002863D0324800F093F9C4B2E1
:102370003148007802281CD1742C1AD100202F4932
:1023800008700BE020202E492C4A92F90020885436
:102390002A480078401C40B228490870274890F924
:1023A00000006428EED3FF20244908700020224951
:1023B000087021480078012805D1652C03D102203E
:1023C0001D49087002E000201B490870672C02D1EB
:1023D000012019490870194890F900100078401C34
:1023E00040B2164A1070164844541648008800F44B
:1023F0000040B0B913480088B0F5167F12DA00210A
:102400001148FFF767FE0F48008818B901210E48F0
:10241000FFF72CFE0B490888411C0A4A11800B4922
:102420000C5405E00748008840F400400549088046
:1024300010BD0000004800403100002030000020A6
:10244000DC0E00203200002000140040180500209F
:1024500021B1828942F40052828104E082894DF6E2
:10246000FF731A408281704710B5044620488442A9
:1024700009D101218803FFF72DFB00214FF4804093
:10248000FFF728FB32E01B48844209D101214804B0
:10249000FFF700FB00214FF40030FFF7FBFA25E0C7
:1024A0001548844209D101218804FFF7F3FA00217D
:1024B0004FF48020FFF7EEFA18E01048844209D16B
:1024C0000121C804FFF7E6FA00214FF40020FFF7CE
:1024D000E1FA0BE00A48844208D101210805FFF720
:1024E000D9FA00214FF48010FFF7D4FA10BD000094
:1024F000003801400044004000480040004C0040CB
:102500000050004002460020B1F5007F00D100BF1E
:1025100013880B400BB1012000E00020704770B51C
:102520000246002400230025002040F66A16B1422E
:1025300000D100BFC1F3421501F01F03012606FAC6
:1025400003F3012D02D19689334006E0022D02D11A
:10255000168A334001E0968A33400C12012606FAAF
:1025600004F41688344013B10CB1012000E00020BF
:1025700070BDF0B50346002400260025002040F67B
:102580006A17B94200D100BF1846C1F3421401F0E6
:102590001F06012707FA06F5012C01D10C3004E0D3
:1025A000022C01D1103000E014301AB107682F431B
:1025B000076002E00768AF430760F0BD2DE9F04710
:1025C00086B005460E460024A24600BFA14600275D
:1025D000B08900B100BF2F462C8A4CF6FF70044032
:1025E000F08804432C82AC894EF6F3100440B08886
:1025F00031890843718908430443AC81AC8A4FF6A2
:10260000FF400440B0890443AC8201A8FFF772FA8E
:102610001F48874202D1DDF810A001E0DDF80CA0D0
:10262000A88900F4004040B10AEBCA0000EB0A1090
:1026300031684900B0FBF1F807E00AEBCA0000EB93
:102640000A1031688900B0FBF1F86420B8FBF0F0A3
:1026500004012009642101FB1089A88900F40040CD
:1026600040B1322000EBC900B0FBF1F000F00700F0
:10267000044308E0322000EB09106421B0FBF1F0C4
:1026800000F00F0004432C8106B0BDE8F087000085
:102690000038014001468888C0F308007047C1F344
:1026A00008028280704700BFFEE700000FB4054BB0
:1026B00010B503A9044A029800F01EF910BC5DF899
:1026C00014FB0000C5310008180000200FB4084BAF
:1026D00010B504A902AA039800F00EF9044602A955
:1026E000002000F0A0FC204610BC5DF814FB0000A8
:1026F0002730000837B514460846064B6A4621467F
:1027000000F0FAF804466946002000F08CFC2046F0
:102710003EBD00002730000830B528B1144C031F1F
:10272000002021680A4605E0084630BD9A4203D8D9
:1027300010465268002AF9D1002800D041680BD019
:102740000468A3EB0005A54204D11B681C440346A2
:10275000046002E0436000E023603AB11C68D51ACF
:10276000A54203D115682C441C6052685A6030BDE4
:102770008C01002002E008C8121F08C1002AFAD10B
:1027800070477047002001E001C1121F002AFBD1F1
:10279000704700002DE9FF5FDDE90220010DDDF843
:1027A00038B0024318D044F61050A1F2FF31414333
:1027B0000D140F98012820D0A5EB0B00401C5FEAF8
:1027C000000A4FF00004474EDFF81C91A046504627
:1027D00016D5CAF1000728E00F98012443A201286A
:1027E00008D0002100980F9BC0E90021C0E90243F6
:1027F000BDE8FF9F6FEA0B01F4E7CBF10000DEE7D5
:10280000074612E0F80707D02246334640464946BD
:10281000FDF751FE8046894622463346104619464A
:10282000FDF749FE04460E467F10002FEAD1DDE990
:102830000201BAF1000F42464B4602DAFDF73BFEB9
:1028400001E0FDF7DAFF04460E460022284BFDF7B3
:10285000A5FE03D84FF0FF30014607E00022254BCC
:1028600020463146FDF780FDFEF736F8102409E0DA
:10287000002C0ADB0A220023FDF7BEFE019B30324A
:102880001A55641E50EA0102F2D1641C019AC4F187
:10289000110314440F9A012A03D0012208430DD1D9
:1028A0000AE0084304D000204FF0110B0F9080E79E
:1028B000A3EB0B056D1E0DE05B4504DD4FF0000240
:1028C00005F1010504E003DA4FF00002A5F101056E
:1028D000002AECD000980F99C0E90231C0E9004508
:1028E00086E70000000024400000F03F30000000B8
:1028F0000000F0430000E03F2DE9FF4F95B09B46FC
:102900008946064600250FE2252877D10024274670
:10291000F84A0121059400E0044316F8013F203BEA
:1029200001FA03F01042F7D130782A2811D06FF065
:102930002F033078A0F13002092A16D8059A44F006
:10294000020402EB820203EB42021044761C059063
:10295000EFE759F8042B0592002A03DA504244F4B9
:102960000054059044F00204761C30782E2816D1CD
:1029700016F8010F44F004042A280DD06FF02F023E
:102980003078A0F13003092B09D807EB870302EB5D
:102990004303C718761CF3E759F8047B761C30789C
:1029A0006C280FD006DC4C2817D068280DD06A2878
:1029B00014D104E0742810D07A280FD10DE044F42B
:1029C00000140AE044F4801401E044F440147278E6
:1029D000824202D104F58014761C761C3078662879
:1029E0000BD013DC582877D009DC002875D0452897
:1029F000F6D04628F4D047281AD19DE118E0632884
:102A000035D0642879D0652812D195E1702873D02B
:102A100008DC6728F1D069286FD06E280DD06F28A8
:102A200006D1B5E073282CD0752875D0782874D0DD
:102A30005A46179990476D1C75E1C4F3025002285D
:102A400009D003280DD0D9F8001004280DD00D604E
:102A500009F1040967E1D9F80010EA17C1E9005249
:102A6000F6E7D9F800100D80F2E70D70F0E719F8DD
:102A7000041B8DF8001000208DF80100EA460120AB
:102A800003E059F804AB4FF0FF3061074FF000014D
:102A900002D40DE008F101018846B9420FDA804501
:102AA000F8DB1AF808100029F4D108E008F1010158
:102AB00088468142FADB1AF808100029F6D10598F9
:102AC0005B46A0EB080721463846179A00F094FAB7
:102AD000284400EB080507E04DE029E10DE01AF875
:102AE000010B5A4617999047B8F10108F7D25B4697
:102AF00021463846179A13E142E00A220092C4F3B5
:102B000002524FF0000A022A08D059F804CB032AD7
:102B10004FEAEC710AD00DE029E02AE009F1070143
:102B200021F00702F2E802C1914609E00FFA8CFC9D
:102B30004FEAEC71042A03D14FFA8CFC4FEAEC7196
:102B4000002907DA0A460021DCF1000C61EB0201E2
:102B50002D2202E0220504D52B228DF8042001222B
:102B600003E0E20701D02022F7E7904659E00A216E
:102B700002E010220DE010214FF0000A00910BE05E
:102B800010224FF0000A44F004040827009203E0EA
:102B900008224FF0000A0092C4F30252022A05D024
:102BA00059F804CB0021032A08D009E009F10701F4
:102BB00021F00702F2E802C1914605E01FFA8CFC01
:102BC000042A01D10CF0FF0C4FF00008220728D591
:102BD000702806D0009B83F0100353EA0A0305D047
:102BE0000EE040228DF80420012208E05CEA010298
:102BF00006D030228DF804208DF805000222904680
:102C0000009B83F0080353EA0A030AD15CEA01023D
:102C100001D1620705D530228DF804204FF001085C
:102C20007F1E582804D034A003900EA802900DE017
:102C300036A0F9E753466046009AFDF7DDFC84466E
:102C40000398825C0298401E029002705CEA0100C8
:102C5000F0D1029806A9081A00F1200A600702D5EF
:102C600024F4803400E00127574502DDA7EB0A0079
:102C700000E0002000EB0A01009005984144401A52
:102C80000590E00306D45B462146179A059800F0AC
:102C9000B3F90544002706E001A85A46C05D17991C
:102CA00090476D1C7F1C4745F6DBE0030CD55B4667
:102CB0002146179A059800F09FF9054404E030205A
:102CC0005A46179990476D1C0099481E009000299C
:102CD000F5DC08E0029802995A460078491C0291F6
:102CE000179990476D1CBAF10001AAF1010AF1DCB5
:102CF00065E10000092801003031323334353637C0
:102D00003839616263646566000000003031323337
:102D100034353637383941424344454600000000D7
:102D200000F058F90544761C307800287FF4ECADAB
:102D300019B02846BDE8F08F620700D4062709F1D4
:102D4000070222F0070CFCE80223E14603F00048EA
:102D50005FEA080C02D00FF2702C0DE05FEA045C11
:102D600002D50FF2682C07E05FEAC47C02D00FF2B4
:102D7000602C01E0AFF2700C4FF0FF3823F00043FD
:102D8000CDF850C065280CD006DC452809D046286F
:102D90001DD047283DD13DE0662818D067287ED158
:102DA00038E00021112F01DB112000E0781CCDE973
:102DB000000106A90EA8FFF7EDFCDDE90F010E9A50
:102DC00003910021009207F1010A04914DE04FF0B8
:102DD00000400097CDE9011006A90EA8FFF7DAFC24
:102DE000DDE90F0203920E9B11990022DDF80CA081
:102DF0000093049211B9791C00EB010AB7EB0A00A9
:102E000004D4C0F1FF3007F1010A0490AAEB0700D7
:102E1000019044E0012F00DA01270021112F01DD8C
:102E2000112000E03846CDE9000106A90EA8FFF701
:102E3000B1FCDDE90F010E9A03910021049100928B
:102E4000BA4621070CD40399514500DA8A46BAF1F3
:102E5000010F05DD009AAAF10101515C302908D06B
:102E6000B84202DA10F1040F06DA0121CDE90110AF
:102E700015E0AAF10101E9E7002805DC0499014405
:102E80000491AAEB000102E0411C514500DD8A4695
:102E90000499401A401C01904FF000400290200716
:102EA00004D40198504501DBCDF8048000208DF852
:102EB0004F0002980DF14F07B0F1004F25D02B20A5
:102EC0000E9002984FF0020800280CDA404202905F
:102ED0002D200E9007E00A210298FDF777FB303194
:102EE000029007F8011DB8F10001A8F10108F2DC19
:102EF00002980028EFD1791E0E980870307800F003
:102F0000200040F0450007F8020D12A8C01B00F198
:102F100007081498007800B1012000EB0A0101981D
:102F200001EBE07105984144401A401E0590E00312
:102F300006D45B462146179A059800F05DF80544D3
:102F40001498007818B15A46179990476D1CE00301
:102F500024D55B462146179A059800F04DF80544A4
:102F60001CE00498002807DBDDE90301884203DD4B
:102F70000098405C179901E0179930205A46904715
:102F8000049805F10105401C04900198401E019031
:102F900004D12E205A46179990476D1CBAF10001B2
:102FA000AAF1010ADDDC05E017F8010B5A46179972
:102FB00090476D1CB8F10001A8F10108F4DC5B46F4
:102FC0002146179A0598ABE62D0000002B00000063
:102FD000200000002DE9F041044600251E4617465A
:102FE000880404D405E039462020B0476D1C641ED7
:102FF000F9D52846BDE8F0812DE9F04104460025C9
:103000001E469046C80301D5302700E020278804DB
:1030100004D505E041463846B0476D1C641EF9D51D
:103020002846BDE8F0810A68531C0B601070704799
:1030300070B5044600250948008800F4004058B1E6
:10304000002006490988C1F30E01054A5054214663
:103050001046FDF7ADF80546284670BD3200002049
:103060001805002010B500BF1748008800F0400088
:103070000028F9D02B201449091D08800F2000F0EA
:103080007BF800BF1048008800F040000028F9D00D
:103090002B200D49091D08800F2000F06DF800BF9E
:1030A0000948008800F040000028F9D02B2006498C
:1030B000091D08804FF4FA7000F05EF8142203A195
:1030C00003A000F007F810BD004800404F4B00007F
:1030D000415400002DE9F04106460D4614460027F4
:1030E000002011490880314610A000F085F9C5B1D3
:1030F000BCB10FE00A2000F03FF80B48008800F454
:10310000004038B12846FFF793FF00B106E00020E9
:1031100005490880601E80B20400EBD100BF04B9ED
:1031200001273846BDE8F0813200002025730D0AE2
:103130000000000010B56FF00400FEF79BFE0A4887
:1031400000680A49B0FBF1F00949087008460078A8
:1031500000EB4001C1EBC0104FF6FF7101EAC00067
:103160000449088010BD00000000002000127A0011
:1031700014000020160000200146114A12884A431C
:103180004FF0E0235A6100229A611A46126942F018
:1031900001021A6100BF4FF0E022106900F0010245
:1031A0001AB100F48032002AF5D04FF0E022126903
:1031B00022F001024FF0E0231A6100229A61704769
:1031C0001600002000BF054A128802F04002002AC3
:1031D000F9D0C2B2014B1B1D1A8070470038014064
:1031E0000EB5FFF7A7FF4FF4A060FEF705FC4FF404
:1031F000E13000F029F9FDF7D5FFFDF751FF4FF45D
:10320000E13000F071F94FF4E13000F0D3F927A07C
:10321000FFF74CFA33A0FFF749FA24A0FFF746FA6C
:103220003CA0FFF743FA35E014223EA13EA0FFF791
:1032300051FF4FF47A70FFF79FFF4FF47A70FFF75A
:103240009BFF4FF47A70FFF797FF4FF47A70FFF708
:1032500093FF4FF47A70FFF78FFFFFF703FFC82249
:1032600030A133A0FFF736FF35A0FFF71FFA4FF468
:103270004870FFF781FF0020102136A20B46CDE9F0
:1032800000210290C82237212820FEF7DDFD35A05D
:10329000FFF70CFA142223A137A0FFF71BFF002829
:1032A000C2D101E0FEF76EFAFCE700000D0A2D2DF9
:1032B0002D2D2D2D2D2D2D2D2D2D2D2D2D2D2D2D3E
:1032C0002D2D2D2D2D2D2D2D2D2D2D2D2D2D2D2D2E
:1032D0002D2D2D2D2D2D2D2D2D2D2D2D2D2D2D2D1E
:1032E0002D0D0A000D0A3E3E3E2020202042414E78
:1032F000494C49592020CEEFC1AACDF8D7DBBACF2F
:10330000CFEEC4BFCAB5D1B5202020203C3C3C0D37
:103310000A0000000D0AC1ACBDD3C4A3BFE92E2E24
:103320002E0D0A004F4B000041542B525354000005
:1033300041542B4349504D4F44453D30000000005F
:103340000D0ACEB4BCECB2E2B5BDC4A3BFE92121E5
:10335000210D0A00B3A2CAD4C1ACBDD3C4A3BFE936
:103360002E2E2E000D0AB3A2CAD4C1ACBDD3C4A365
:10337000BFE92E2E2E0D0A004154000001460868B8
:10338000704710B503460C46002109E000BF1888BD
:1033900000F080000028FAD0605C9880481CC1B220
:1033A0009142F3DB002010BD0FB438B505A80090A2
:1033B0000F48009A0499FFF79DF9002000900C48EF
:1033C000FCF708FF85B200240DE000BF402109484A
:1033D000FFF798F80028F9D00548015D0548FFF788
:1033E0005EF9601C84B2AC42EFDB38BC5DF814FBC4
:1033F000200C0020004400400FB438B505A8009010
:103400000F48009A0499FFF775F9002000900C48C6
:10341000FCF7E0FE85B200240DE000BF4021094822
:10342000FFF770F80028F9D00548015D0548FFF75F
:1034300036F9601C84B2AC42EFDB38BC5DF814FB9B
:10344000700700200048004010B586B004460121F6
:1034500044F20400FEF72EFB4FF40070ADF81400A8
:1034600003208DF8160018208DF8170005A91C48B8
:10347000FDF76BFC4FF48060ADF8140004208DF86C
:10348000170005A91648FDF760FC25208DF80000FF
:1034900003208DF801008DF8020001208DF8030053
:1034A0006846FEF771FA01940020ADF80800ADF807
:1034B0000A00ADF80C00ADF810000C20ADF80E00BD
:1034C00001A90848FFF77AF8012240F22551054882
:1034D000FFF74FF801210348FEF7BAFF06B010BD11
:1034E000000801400038014010B586B004460121B3
:1034F0000420FEF7DFFA01214804FEF7BBFA294851
:10350000FEF7B2FF0420ADF8100003208DF8120082
:1035100018208DF8130004A92348FDF716FC082095
:10352000ADF8100004208DF8130004A91E48FDF723
:103530000CFC00940020ADF80400ADF80600ADF8D6
:103540000800ADF80C000C20ADF80A0069461548DB
:10355000FFF734F8012240F225511248FFF709F82D
:1035600001211048FEF774FF26208DF81400022078
:103570008DF815008DF8160001208DF8170005A8AC
:10358000FEF702FA41F61F4140F2E730FEF7EEFC8B
:1035900000200649088000210548FEF767FD06B0B7
:1035A00010BD00000044004000080140360000202B
:1035B0000010004010B586B0044601210820FEF737
:1035C00079FA01218804FEF755FA2948FEF74CFFE5
:1035D0004FF48060ADF8100003208DF81200182021
:1035E0008DF8130004A92348FDF7AFFB4FF40060EA
:1035F000ADF8100004208DF8130004A91D48FDF754
:10360000A4FB00940020ADF80400ADF80600ADF86E
:103610000800ADF80C000C20ADF80A00694614480B
:10362000FEF7CCFF01211248FEF712FF012240F203
:1036300025510F48FEF79DFF27208DF8140001202B
:103640008DF815008DF816008DF8170005A8FEF707
:103650009BF941F61F4140F2E730FEF7D1FC002014
:103660000549088000210548FEF700FD06B010BDA1
:1036700000480040000C01403200002000140040CF
:1036800030B595B0054613AB12AA09A9284600F03B
:1036900039FA044614B1204615B030BD002014900C
:1036A00026E0224909689DF8502001EBC20113ABC6
:1036B00011AA486801A900F025FA04460CB1204679
:1036C000EAE709A901A800F0BBFC60B99DF8440035
:1036D0009DF84810884201DD0220DDE79DF850008A
:1036E000124988750AE09DF85000401CC0B2149041
:1036F0000E48007D9DF850108842D2DC00BF0B4878
:10370000007D9DF85010884201D10420C4E714A91F
:10371000284600F0D7FA04460CB12046BCE79DF8D5
:103720005000024948750020B6E7000088000020DC
:103730002DE9F0419AB09C48847D007DA04202DCD6
:103740001AB0BDE8F0819849096801EBC40106ABE5
:1037500007AA486808A900F0D5F908A993A0FEF7C0
:10376000A5FF002644E09048008B0121B1400840AD
:10377000D8B122218FA0FEF799FF304600F028FB38
:1037800089492431471839468BA0FEF78FFF222143
:1037900088A0FEF78BFF304600F01AFB82492431E7
:1037A000084410A941F8260018E0304600F010FB4C
:1037B0007D492431085810A941F826007A48C07D77
:1037C00030B910A850F826107CA0FEF76FFF05E076
:1037D00010A850F826107AA0FEF768FF9DF81C008C
:1037E000401EB04202D078A0FEF760FF701CC6B247
:1037F0009DF81C008642B6DB74A0FEF757FF00F070
:1038000039FB6948407D0B280DD2DFE800F0060D3A
:10381000151E27323F4E5F7287006349096851F8D1
:1038200034008047054690E05F4A126852F8341031
:1038300010988847054688E05B4B1B6853F8342096
:10384000DDE91001904705467FE0574F3F6857F884
:10385000343010A807C89847054676E0DFF848C11D
:10386000DCF800C05CF8347010A80FC8B8470546F3
:103870006BE01498DFF830C10090DCF800C05CF811
:10388000347010A80FC8B84705465EE0DDE91401A2
:10389000DFF814C1CDE90001DCF800C05CF8347039
:1038A00010A80FC8B84705464FE0DDE91412169876
:1038B000DFF8F4C0CDE900120290DCF800C05CF83B
:1038C000347010A80FC8B84705463EE0DDE9142360
:1038D000DDE91610DFF8D0C0CDE90023CDE90210F4
:1038E000DCF800C05CF8347010A80FC8B847054673
:1038F0002BE0DDE91523DDE91710CDE90123CDE942
:1039000003101498DFF8A0C00090DCF800C05CF849
:10391000347010A80FC8B847054616E0DDE9162335
:10392000DDE91810CDE90223CDE90410DDE9140129
:10393000DFF874C0CDE90001DCF800C05CF8347039
:1039400010A80FC8B847054600BF00BF00F050FAE6
:103950009DF8180001280CD11348C07D20B92946D4
:103960001BA0FEF7A3FE07E029461BA0FEF79EFE64
:1039700002E018A0FEF79AFE0B4890F8EC0088B120
:103980000948D0F8F0000A21B0FBF1F201FB120760
:103990000548D0F8F000B0FBF1F83A46414611A0D6
:1039A000FEF784FE00BFCBE6880000200D0A2573D9
:1039B000280000002563000025730000256C7500B9
:1039C00030582558000000002C000000290000009D
:1039D0003D256C753B0D0A003D305825583B0D0ABE
:1039E0000000000046756E6374696F6E2052756E3C
:1039F0002054696D653A25642E2531646D730D0A76
:103A000000000000F0B50346154600200022002605
:103A1000002455E01F782C2F01D104B901221F7812
:103A2000292F01D01F780FB904B94AE0002E34D1F4
:103A30001F78302F02DB1F78392F11DD1F78612F9F
:103A400002DB1F78662F0BDD1F78412F02DB1F780A
:103A5000462F05DD1F78582F02D01F78782F0CD104
:103A600002B12EE01F78612F03DB1F78203F0F701B
:103A700001E01F780F70491C1FE01F78222F04D12E
:103A800002B11EE00126012417E01F78202F14D078
:103A90001F782C2F11D0FF2613E01F78222F00D182
:103AA000002402B10DE044B11F785C2F02D15B1CF1
:103AB000471CF8B21F780F70491C471CF8B25B1CFA
:103AC000A8E700BF00270F702E70F0BD10B50446A8
:103AD000002010700BE020780870641C491C1078DE
:103AE000401C10701078984201DB012010BD207836
:103AF000202802D020780028EDD10020087000BFD7
:103B0000F4E700002DE9FF4F85B080468946002785
:103B1000002004900390012002904FF0000B00253C
:103B200044461DE02078202816D005F07F000528A7
:103B300012DA0DB945F0800505F07F00042803D1A5
:103B400020782A2800D00EE0207805F07F010DF8BB
:103B50000100681CC5B202E0852D00D103E0641CA1
:103B600020780028DED100BF8DB1002005F07F0154
:103B70000DF8010051A1684600F062FA18B9002161
:103B80000898017002E001210898017000254FF0AB
:103B9000000A444614E0641C0AF1010000F0FF0A28
:103BA0002078202802D020782A2809D1204600F049
:103BB000D7F90646282E03D02A2E01D0CDF810A022
:103BC0002078282802D020780028E4D144460498A0
:103BD00010B10498401C04444FF0000A002654E041
:103BE000207810B94FF0010A50E02078282803D13E
:103BF00016B9781CC7B213E02078292808D13EB93D
:103C000017B1781EC7B201E04FF0010A47B93DE095
:103C10002078222804D10EB9012000E000200646B9
:103C200047B9207820282FD0207889F8000009F1A2
:103C3000010929E020782C2804D101200290681C79
:103C4000C5B214E02078202811D0207828280ED082
:103C50004DB9BBF1050F06DA20780DF80B000BF11A
:103C6000010000F0FF0B0298401CC0B20290012F2F
:103C70000AD10298022807D10298401CC0B20290D3
:103C80000398401CC0B20390641CA9E700BF0398CE
:103C9000012809D100200DF80B0008A1684600F0AA
:103CA000CFF908B900200390079903980870002005
:103CB00089F80000504609B0BDE8F08F766F69645E
:103CC000000000002DE9F043B5B005460F46002482
:103CD000002604E000213D488155701CC6B20A2E22
:103CE000F8DB06E06D1C287818B9012035B0BDE876
:103CF000F08328782828F5D16D1C61E034AA694644
:103D00002846FFF77FFE064635449DF8D00020B1D7
:103D1000012827D0FF284CD149E09DF8000000B3CE
:103D200033A9684600F027F906460EB10220DDE708
:103D3000204600F04DF825490A31339A0A50A1F186
:103D40002400008B0121A140884320491A390883AF
:103D500004211E480155601CC4B20A2C01DD032059
:103D6000C4E726E0684600F087F9401C00F0FF0831
:103D7000204600F02DF815490A3100EB01094946AB
:103D8000684600F06EF911481A38018B0120A040F6
:103D9000014388B20D491A3908830C4800F80480A1
:103DA000601CC4B20A2C01DD03209FE701E0022061
:103DB0009CE700BF2878292801D0287800B900E0C6
:103DC0009CE700BF3C70002090E70000A2000020AC
:103DD00002460020002105E0044B5B5C0344D8B29E
:103DE0004B1CD9B29142F7DB70470000A2000020C3
:103DF00010B501210D48FEF748F9012808D10C48FB
:103E0000D0F8F0004FF6FF7108440949C1F8F000FE
:103E10000648FEF737F90649D1F8F010084404497E
:103E2000C1F8F0000846D0F8F00010BD00080040CE
:103E30008800002010B5044604EBC40000EB041019
:103E40000122C2EB800081B24FF47A70FEF796F93E
:103E500001200149C87510BD8800002010B5024638
:103E6000012000E050430B00A1F10104E1B2F9D1BF
:103E700010BD000010B501210848FEF7F1F84FF61B
:103E8000FF710648FEF724F900210448FEF722F9E5
:103E900000200349C1F8F00010BD000000080040F8
:103EA0008800002070B51D48008800F400400028FC
:103EB00033D01A48057800201949485519488168B7
:103EC0001748884704461CB91649C868804721E04E
:103ED000134800F0DDF80546012D00D02C46CCB18A
:103EE000012C06D0022C08D0032C0AD0042C10D1AF
:103EF0000BE00DA0FEF7DAFB0BE00EA0FEF7D6FB01
:103F000007E00FA0FEF7D2FB03E010A0FEF7CEFB08
:103F100000BF00BF00200149088070BD1C000020C8
:103F20009001002088000020BAAFCAFDB4EDCEF3A6
:103F3000210D0A00B2CECAFDB4EDCEF3210D0A0068
:103F4000B2CECAFDCCABB6E0210D0A00CEB4D5D2BC
:103F5000B5BDC6A5C5E4B5C4BAAFCAFD210D0A00FA
:103F60000146491C00E0491C0878202801D100299D
:103F7000F9D1087870472DE9F04307460E46002531
:103F80004FF00A083C46002030601FE020783928B6
:103F900002DC207830280ADA2078462802DC2078F3
:103FA000412804DA2078582809D1012D07D120783A
:103FB000412801DB4FF01008681CC5B205E02078ED
:103FC00000B904E00120BDE8F083641CDEE700BF17
:103FD0003C46B8F1100F0FD1032D01DA0220F2E7B1
:103FE0002078302806D16078582803D1A41CA81E58
:103FF000C5B204E00320E6E70DB90420E3E71BE0C7
:104000000DB1681EC5B22078392806DC207830282A
:1040100003DB2078A0F1300902E02078A0F1370915
:1040200029464046FFF71AFF316809FB001030604F
:10403000641C207800B900E0E2E700BF0020C2E77E
:1040400002460AE010780B78984201D001207047B0
:10405000107800B902E0521C491CF3E700BF0020B1
:10406000F5E706E002780A70027802B902E0401C27
:10407000491CF7E700BF70470146002005E00A78B9
:1040800002B903E0421CD0B2491CF8E700BF7047F8
:1040900010B58CB004461E230BAA03A92046FFF7D7
:1040A00015FD0090009810B101200CB010BD9DF8D6
:1040B0002C00044400200B900EE040489DF82C207A
:1040C00050F8221003A8FFF7BBFF00B908E09DF8E5
:1040D0002C00401CC0B20B909DF82C000728ECD39C
:1040E00000BF9DF82C00072863D2DFE800F004052C
:1040F0003C5E6564630000BF31A0FEF7D7FA31A0D3
:10410000FEF7D4FA3FA0FEF7D1FA4EA0FEF7CEFAA2
:104110005CA0FEF7CBFA6BA0FEF7C8FA79A0FEF719
:10412000C5FA86A0FEF7C2FA8BA0FEF7BFFA90A0F0
:10413000FEF7BCFA94A0FEF7B9FA99A0FEF7B6FA1A
:104140009EA0FEF7B3FAA4A0FEF7B0FAB0A0FEF767
:10415000ADFABDA0FEF7AAFAC8A0FEF7A7FAD4A050
:10416000FEF7A4FA9AE216A0FEF7A0FAE0A0FEF786
:104170009DFA00200B900EE0ED4800689DF82C2081
:1041800000EBC2004168EBA0FEF790FA9DF82C000E
:10419000401CC0B20B90E648007D9DF82C10884270
:1041A000EADC07A0FEF782FA78E205A0FEF77EFAC5
:1041B000C4E171E245E219E2ECE100004C000020AC
:1041C0000D0A00002D2D2D2D2D2D2D2D2D2D2D2DBC
:1041D0002D2D2D2D2D2D2D2D2D2D2D2D55534D418D
:1041E00052542056332E312D2D2D2D2D2D2D2D2D8C
:1041F0002D2D2D2D2D2D2D2D2D2D2D2D2D2D2D20FC
:104200000D0A00002020202055534D415254CAC7AA
:10421000D3C9414C49454E54454BBFAAB7A2B5C47A
:10422000D2BBB8F6C1E9C7C9B5C4B4AEBFDAB5F7F9
:10423000CAD4BBA5BDBBD7E9BCFE2CCDA8B9FD2017
:104240000D0A0000CBFC2CC4E3BFC9D2D4CDA8B961
:10425000FDB4AEBFDAD6FACAD6B5F7D3C3B3CCD065
:10426000F2C0EFC3E6B5C4C8CEBACEBAAFCAFD2C11
:10427000B2A2D6B4D0D02ED2F2B4CB2CC4E3BFC9F4
:104280000D0A0000D2D4CBE6D2E2B8FCB8C4BAAF73
:10429000CAFDB5C4CAE4C8EBB2CECAFD28D6A7B3DE
:1042A000D6CAFDD7D62831302F3136BDF8D6C6292B
:1042B000A1A2D7D6B7FBB4AEA1A2BAAFCAFDC8EBD4
:1042C0000D0A0000BFDAB5D8D6B7B5C8D7F7CEAA61
:1042D000B2CECAFD292CB5A5B8F6BAAFCAFDD7EE45
:1042E000B6E0D6A7B3D63130B8F6CAE4C8EBB2CE42
:1042F000CAFD2CB2A2D6A7B3D6BAAFCAFDB7B520B5
:104300000D0A0000BBD8D6B5CFD4CABE2ED0C2D4B9
:10431000F6B2CECAFDCFD4CABEBDF8D6C6C9E8D65D
:10432000C3B9A6C4DC2CD0C2D4F6BDF8D6C6D7AA71
:10433000BBBBB9A6C4DC2E0D0A000000BCBCCAF58C
:10434000D6A7B3D63A7777772E6F70656E656476A9
:104350002E636F6D0D0A000055534D415254D3D05A
:1043600037B8F6CFB5CDB3C3FCC1EE3A0D0A0000A5
:104370003F3A202020202020BBF1C8A1B0EFD6FA80
:10438000D0C5CFA20D0A000068656C703A202020CD
:10439000BBF1C8A1B0EFD6FAD0C5CFA20D0A00007C
:1043A0006C6973743A202020BFC9D3C3B5C4BAAFB7
:1043B000CAFDC1D0B1ED0D0A0A00000069643A20BF
:1043C00020202020BFC9D3C3BAAFCAFDB5C4494419
:1043D000C1D0B1ED0D0A0A006865783A202020208E
:1043E000B2CECAFD3136BDF8D6C6CFD4CABE2CBABD
:1043F000F3B8FABFD5B8F12BCAFDD7D6BCB4D6B442
:10440000D0D0BDF8D6C6D7AABBBB0D0A0A000000A3
:104410006465633A20202020B2CECAFD3130BDF859
:10442000D6C6CFD4CABE2CBAF3B8FABFD5B8F12BD2
:10443000CAFDD7D6BCB4D6B4D0D0BDF8D6C6D7AA9C
:10444000BBBB0D0A0A00000072756E74696D653A97
:10445000312CBFAAC6F4BAAFCAFDD4CBD0D0BCC6EB
:10446000CAB13B302CB9D8B1D5BAAFCAFDD4CBD084
:10447000D0BCC6CAB13B0D0A0A000000C7EBB0B4FD
:10448000D5D5B3CCD0F2B1E0D0B4B8F1CABDCAE44E
:10449000C8EBBAAFCAFDC3FBBCB0B2CECAFDB2A274
:1044A000D2D4BBD8B3B5BCFCBDE1CAF82E0D0A000E
:1044B0002D2D2D2D2D2D2D2D2D2D2D2D2D2D2D2D2C
:1044C0002D2D2D2D2D2D2D2D2D2D414C49454E546D
:1044D000454B2D2D2D2D2D2D2D2D2D2D2D2D2D2DD6
:1044E0002D2D2D2D2D2D2D2D2D2D2D200D0A0000A6
:1044F0002D2D2D2D2D2D2D2D2D2D2D2D2D2D2D2DEC
:104500002D2D2D2D2D2D2D2D2DBAAFCAFDC7E5B585
:10451000A52D2D2D2D2D2D2D2D2D2D2D2D2D2D2D53
:104520002D2D2D2D2D2D2D2D2D2D2D2D200D0A0038
:104530008800002025730D0A0000000059A0FEF736
:10454000B5F800200B901AE0664909689DF82C2008
:1045500001EBC20101AB02AA486803A9FFF7D2FA36
:10456000604800689DF82C1050F8312003A95EA027
:10457000FEF79CF89DF82C00401CC0B20B905948E7
:10458000007D9DF82C108842DEDCAFF2CC30FEF7C7
:104590008DF883E0AFF2D830FEF788F80BAA03A9B4
:1045A0002046FFF72FFA9DF82C00C8B9694603A8EA
:1045B000FFF7E1FC0B909DF82C0020B94FA000996B
:1045C000FEF774F80EE09DF82C00042801D00220BC
:1045D0006BE54DA0FEF76AF801204249C87501E07D
:1045E000022062E547A0FEF761F857E045A0FEF71C
:1045F0005DF80BAA03A92046FFF704FA9DF82C00EA
:10460000C8B9694603A8FFF7B6FC0B909DF82C00CB
:1046100020B942A00099FEF749F80EE09DF82C0061
:10462000042801D0022040E53FA0FEF73FF800201B
:104630002C49C87501E0022037E532A0FEF736F8B4
:104640002CE030A0FEF732F80BAA03A92046FFF7B2
:10465000D9F99DF82C00C8B9694603A8FFF78BFC6F
:104660000B909DF82C0078B91E49009881F8EC0059
:10467000084690F8EC0018B130A0FEF717F807E0F4
:1046800035A0FEF713F803E002200EE502200CE54A
:104690001CA0FEF70BF801E0012006E500BF00209A
:1046A00003E500002D2D2D2D2D2D2D2D2D2D2D2D06
:1046B0002D2D2D2D2D2D2D2D2D2D2D2D2DBAAFCA7E
:1046C000FD204944202D2D2D2D2D2D2D2D2D2D2D31
:1046D0002D2D2D2D2D2D2D2D2D2D2D2D2D2D2D2D0A
:1046E000200D0A008800002025732069642069736A
:1046F0003A0D0A3058253038580D0A004845583AC6
:10470000305825580D0A00003136BDF8D6C6B2CE55
:10471000CAFDCFD4CABE210D0A0000004445433A69
:10472000256C750D0A0000003130BDF8D6C6B2CE3A
:10473000CAFDCFD4CABE210D0A00000052756E20FA
:1047400054696D652043616C63756C6174696F6E4B
:10475000204F4E0D0A00000052756E2054696D65A1
:104760002043616C63756C6174696F6E204F4646BF
:104770000D0A000070B504460E463046FBF72AFDD0
:1047800005462946204600F00FF82A4631462068A3
:10479000FBF7EAFC20682844206070BD02681170B5
:1047A0000268521C0260704710B50A46CB1701EB35
:1047B00013631B0A046823700268521C02600A46D5
:1047C000CB1701EB13631B12A1EB032304682370C7
:1047D0000268521C026010BD1FB5044602980028F2
:1047E0000DDD20460299FFF7DFFFDDE90221206899
:1047F000FBF7BAFC20680299084420600AE001989F
:1048000020B120460199FFF7B5FF03E000212046C3
:10481000FFF7CAFF1FBD0160704700004D515443B0
:104820000000000004000000000000000000000084
:10483000000000003C0001004D51545700000000F2
:104840000000000000000000000000000000000068
:104850000000000000000000000000000000000058
:104860000000000000000000000000000000000048
:1048700000000000DDDDDDDDDCBBBBDDDDDDDDDD21
:10488000DDDDDDDD98888888888888887777777788
:104890007788888885555556666666666666666654
:1048A00066688888833333322222222222222222FF
:1048B0002228888D3F000000646563006964000061
:1048C00072756E74696D650068656C70000000003B
:1048D0006C6973740000000068657800766F696425
:1048E0002061746B5F726D30345F717569745F74D1
:1048F00072616E7328766F696429000075382061D3
:10490000746B5F383236365F73656E645F636D64F7
:10491000287538202A636D642C7538202A61636BF2
:104920002C753136207761697474696D65290000D2
:10493000766F69642077726974655F616464722858
:1049400075333220616464722C7533322076616C69
:104950002900000075333220726561645F61646410
:10496000722875333220616464722900797531329E
:104970003334353637382E2E0000000041542B4397
:10498000495053544152543D22544350222C2269E1
:104990006F742D30367A303069356A7A36356A620E
:1049A00033772E6D7174742E696F746875622E6121
:1049B0006C6979756E63732E636F6D222C31383894
:1049C00033000000373734343936623737373934FB
:1049D000653138623636636431393032653461327C
:1049E0003138336163346663396239623831653135
:1049F00037646264313831343032366237393533B6
:104A0000616665340000000042616E696C69792D51
:104A1000206950686F6E6500683363794F71627307
:104A200075454D2E546573747C7365637572656D41
:104A30006F64653D322C7369676E6D6574686F6471
:104A40003D686D61637368613235362C74696D65DC
:104A50007374616D703D31363634343331303430F7
:104A60003834337C000000007B226964223A202520
:104A7000303133642C22706172616D73223A7B2273
:104A80005241494E223A25642C2252454C4159311B
:104A9000223A25642C2252454C415932223A25644F
:104AA0002C224D4F4445223A25647D2C2276657296
:104AB00073696F6E223A22312E30222C226D65747A
:104AC000686F64223A227468696E672E6576656E37
:104AD000742E70726F70657274792E706F73742299
:104AE0007D000000044B0008000000209001000041
:104AF0008C0C0008744B000890010020E08E000030
:104B0000842700081184A24A04A0090102030406B4
:104B10000708090A11010A991E193069341702049D
:104B20000608B4481B08C8041AD0041ABC041AD8D2
:104B3000041AB8041AC004137D33140854491B081E
:104B4000170C1A300813D5301B08FC0C1A65081A0C
:104B5000DC0822681420353E1408813614083137E9
:104B60001B08A50C199909127701C913084A1408E2
:044B70006C49C208C2
:0400000508000131BD
:00000001FF
